:020000040000FA
:100000000C9462000C948A000C948A000C948A0070
:100010000C948A000C948A000C948A000C948A0038
:100020000C948A000C948A000C948A000C941A0692
:100030000C948A000C948A000C948A000C948A0018
:100040000C94D0050C948A000C949E050C947805B1
:100050000C948A000C948A000C948A000C948A00F8
:100060000C948A000C948A000000000024002700F1
:100070002A0000000000250028002B0000000008D6
:10008000000201000003040700000000000000005F
:1000900000000000230026002900040404040404D6
:1000A0000404020202020202030303030303010227
:1000B00004081020408001020408102001020408F6
:1000C00010201B0711241FBECFEFD8E0DEBFCDBF2D
:1000D00012E0A0E0B1E0E4EEFAE102C005900D927A
:1000E000A039B107D9F723E0A0E9B2E001C01D9221
:1000F000A937B207E1F710E0C2E6D0E004C02197CB
:10010000FE010E946A0DC136D107C9F70E94B907E6
:100110000C94700D0C9400008F929F92AF92BF923E
:10012000FF920F931F93CF93DF93F09076032BE012
:100130002F1508F44CC02091780308E512E0021B4B
:10014000110927FD1395000F111F000F111F20919A
:100150007703C8E8D0E0C21BD10927FDD395CC0FA7
:10016000DD1FCC0FDD1F4E010D2E000CAA08BB08B1
:100170009801012E000C440B550B281939094A0926
:100180005B09DC010E94E70A24EB30E040E050E02C
:100190000E94BD0A820E931EA41EB51E8C169D06DB
:1001A0002CF0E801801691060CF4E4012297CC0FA4
:1001B000DD1F2FB7F8948F2D90E0FC01EE0FFF1F8D
:1001C000E80FF91FE95CFC4FD283C1832FBFDF9199
:1001D000CF911F910F91FF90BF90AF909F908F9004
:1001E0000895AF92BF92CF92DF92EF92FF920F935A
:1001F0001F93CF93DF936C017B018B01040F151FBD
:10020000EB015E01AE18BF08C017D10759F0699124
:10021000D601ED91FC910190F081E02DC601099588
:10022000892B79F7C501DF91CF911F910F91FF9035
:10023000EF90DF90CF90BF90AF900895FC01538D69
:10024000448D252F30E0842F90E0821B930B5417B0
:1002500010F0CF96089501970895FC01918D828D3D
:10026000981761F0A28DAE0FBF2FB11D5D968C91D6
:10027000928D9F5F9F73928F90E008958FEF9FEF15
:100280000895FC01918D828D981731F0828DE80FD1
:10029000F11D858D90E008958FEF9FEF0895FC018B
:1002A000918D228D892F90E0805C9F4F821B910958
:1002B0008F73992708958AE992E00E944F0121E007
:1002C000892B09F420E0822F089580E090E0892BAB
:1002D00029F00E945B0181110C9400000895FC013B
:1002E000A48DA80FB92FB11DA35ABF4F2C91848D97
:1002F00090E001968F739927848FA689B7892C93F4
:10030000A089B1898C91837080648C93938D848D46
:10031000981306C00288F389E02D80818F7D808349
:100320000895EF92FF920F931F93CF93DF93EC0109
:1003300081E0888F9B8D8C8D98131AC0E889F9898C
:10034000808185FF15C09FB7F894EE89FF8960838F
:10035000E889F98980818370806480839FBF81E010
:1003600090E0DF91CF911F910F91FF90EF90089552
:10037000F62E0B8D10E00F5F1F4F0F731127E02E2D
:100380008C8D8E110CC00FB607FCFACFE889F98965
:10039000808185FFF5CFCE010E946F01F1CFEB8DFB
:1003A000EC0FFD2FF11DE35AFF4FF0829FB7F89439
:1003B0000B8FEA89FB8980818062CFCFCF93DF9357
:1003C000EC01888D8823B9F0AA89BB89E889F9896D
:1003D0008C9185FD03C0808186FD0DC00FB607FCA2
:1003E000F7CF8C9185FFF2CF808185FFEDCFCE01D5
:1003F0000E946F01E9CFDF91CF910895833081F0A2
:1004000028F4813099F08230A9F008958730A9F05E
:100410008830C9F08430B1F4809180008F7D03C0B2
:10042000809180008F7780938000089584B58F77C6
:1004300084BD089584B58F7DFBCF8091B0008F7708
:100440008093B00008958091B0008F7DF9CFCF9355
:10045000DF93282F30E0F901E458FF4F8491F90130
:10046000E255FF4FD491F901E656FF4FC491CC23DA
:10047000A1F081110E94FE01EC2FF0E0EE0FFF1FB2
:10048000E057FF4FA591B491EC91ED2381E090E00E
:1004900009F480E0DF91CF91089580E090E0FACFF9
:1004A0001F93CF93DF93282F30E0F901E458FF4FDB
:1004B0008491F901E255FF4FD491F901E656FF4FBF
:1004C000C491CC23A9F0162F81110E94FE01EC2FBC
:1004D000F0E0EE0FFF1FEE58FF4FA591B4918FB7DC
:1004E000F894EC91111108C0D095DE23DC938FBFF6
:1004F000DF91CF911F910895DE2BF8CFCF93DF933B
:1005000090E0FC01E255FF4F249186569F4FFC017D
:1005100084918823D1F090E0880F991FFC01E8595D
:10052000FF4FA591B491FC01EE58FF4FC591D491B6
:1005300061110EC09FB7F8948C91E22FE0958E2345
:100540008C932881E223E8839FBFDF91CF910895A8
:100550008FB7F894EC91E22BEC938FBFF6CF1F93FB
:10056000CF93DF93182FEB0161E00E947E0220976A
:1005700039F460E0812FDF91CF911F910C945002EC
:10058000CF3FD10511F461E0F5CFE12FF0E0E45861
:10059000FF4FE491E33031F140F4E130B1F0E2306B
:1005A000E1F0C038D1057CF7E4CFE73029F1E8303D
:1005B00059F1E430B1F7809180008062809380002F
:1005C000D0938B00C0938A0004C084B5806884BD3A
:1005D000C7BDDF91CF911F91089584B5806284BD1E
:1005E000C8BDF7CF80918000806880938000D09351
:1005F0008900C0938800EDCF8091B000806880931F
:10060000B000C093B300E5CF8091B00080628093CA
:10061000B000C093B400DDCFFC0101900020E9F7E9
:100620003197AF01481B590BBC018AE992E00C9449
:10063000F100CF93DF930E940C03EC0182E191E083
:100640000E940C038C0F9D1FDF91CF910895CF93D3
:10065000DF93EB01863471F460E089E00E94500280
:1006600061E08BE00E945002BE0186E0DF91CF91F5
:100670000C94AF02823431F461E089E00E945002B0
:1006800060E0EFCF85E191E00E941903EDCFCF93B9
:10069000DF93EB01863471F461E087E00E94500241
:1006A00060E088E00E945002BE0185E0DF91CF91BA
:1006B0000C94AF02823431F460E087E00E94500273
:1006C00061E0EFCF8BE491E00E941903EDCF4F92F0
:1006D0005F926F927F928F929F92AF92BF92CF92D2
:1006E000DF92EF92FF920F931F93CF93DF934B0113
:1006F0005C0129013A010E94210B6B017C01A301DD
:100700009201C501B4010E94200B4B015C0120E065
:1007100030E040E85FEB0E948D0B87FD62C020E077
:1007200030E040E85FE3C501B4010E94EC0C18160C
:1007300034F4812C912C20E8A22E2FE3B22E20E05D
:1007400030E040E85FEBC701B6010E948D0B87FDEA
:100750004FC020E030E040E85FE3C701B6010E94EF
:10076000EC0C18160CF4A1C020E030E0A901C70180
:10077000B6010E94EC0C8601DE2DCF2D181684F0F8
:1007800020E030E0A901C701B6010E948D0B88234B
:10079000B1F18601DE2DCF2DF7FAF094F7F8F09441
:1007A00080915C0390915D036FEF70E0681B790BA3
:1007B000072E000C880B990B0E943C0CA701960198
:1007C0000E94F10C0E94040C7B0120E030E0A901A2
:1007D000B8018D2F9C2F0E94EC0C87FD13C086E47E
:1007E00012C0812C912C90E8A92E9FEBB92EA7CF97
:1007F000C12CD12C80E8E82E8FEBF82ECACFF12C3B
:10080000E12CEDCF82E4B7010E94470320E030E005
:10081000A901C501B4010E94EC0C75016401181610
:1008200084F020E030E0A901C501B4010E948D0BE5
:10083000F7FAF094F7F8F094811103C0D0E0C0E02B
:100840001EC080915C0390915D036FEF70E0681BA8
:10085000790B072E000C880B990B0E943C0CA7010A
:1008600096010E94F10C0E94040CEB0120E030E0A4
:10087000A901C501B4010E94EC0C87FD14C086E4F7
:10088000BE01DF91CF911F910F91FF90EF90DF900C
:10089000CF90BF90AF909F908F907F906F905F9020
:1008A0004F900C94270382E4EBCF80915C039091EE
:1008B0005D036FEF70E07B01E81AF90A90CFCF93E8
:1008C000DF9380E891E00E941903CCE5D3E083E751
:1008D000888F70E060E086E40E94470370E060E08B
:1008E00086E40E94270381E090E09F878E871F8A1D
:1008F0001E8A1D8A1C8A1B8A1A8A8AE590E0DF916B
:10090000CF910C948C000F931F9360E0809168034B
:100910000E94500283E090E00197F1F761E080913E
:1009200068030E9450028BE490E00197F1F760E0C9
:10093000809168030E945002809166039091670342
:100940009927FC01E255FF4F6491FC01E656FF4FE9
:10095000E491F0E0EE0FFF1FE057FF4F8591949177
:1009600000E412E42FE030E0462F0E94D606611525
:1009700071058105910529F06F5F7F4F8F4F9F4F64
:100980009F700E943A0C20E030E048E652E40E945A
:10099000920B2CE53FE842E250E40E94920B0E9449
:1009A000040CCB011F910F9108954F925F926F92AB
:1009B0007F928F929F92AF92BF92CF92DF92EF92EF
:1009C000FF920F931F93CF93DF9300D000D0CDB74A
:1009D000DEB72B013C0129833A834B835C838CE394
:1009E000C816D1040CF040C00E948304BC01990FCA
:1009F000880B990B0E943C0CA80197010E94EC0CFB
:100A00001816E4F429813A814B815C81C301B2015B
:100A10000F900F900F900F90DF91CF911F910F913A
:100A2000FF90EF90DF90CF90BF90AF909F908F900E
:100A30007F906F905F904F900C9467030E948304A7
:100A4000BC01990F880B990B0E943C0C9B01AC01D7
:100A5000C801B7010E94EC0C181674F529813A817F
:100A60004B815C815058D2CF88E7C81AD1088DE3FA
:100A7000C816D10428F50E948304BC01990F880B85
:100A8000990B0E943C0C9B01AC01C801B7010E946C
:100A90008D0B87FDE3CF0E948304BC01990F880B67
:100AA000990B0E943C0C9B01AC01C801B7010E944C
:100AB000EC0C18160CF4A6CF20E030E0A901A6CF6C
:100AC00085E891E00F900F900F900F90DF91CF91FC
:100AD0001F910F91FF90EF90DF90CF90BF90AF905C
:100AE0009F908F907F906F905F904F900C94190320
:100AF0001F920F920FB60F9211242F933F934F9393
:100B00005F936F937F938F939F93AF93BF93EF9375
:100B1000FF938AE992E00E946F01FF91EF91BF91EC
:100B2000AF919F918F917F916F915F914F913F9185
:100B30002F910F900FBE0F901F9018951F920F923C
:100B40000FB60F9211242F938F939F93EF93FF93E0
:100B5000E091AA02F091AB028081E091B002F091A5
:100B6000B10282FD1BC090818091B3028F5F8F73B1
:100B70002091B402821741F0E091B302F0E0E65612
:100B8000FD4F958F8093B302FF91EF919F918F91CD
:100B90002F910F900FBE0F901F9018958081F4CF6A
:100BA0001F920F920FB60F9211242F933F938F93A2
:100BB0009F93AF93BF938091960290919702A091DB
:100BC0009802B09199023091950223E0230F2D37BE
:100BD00058F50196A11DB11D2093950280939602B0
:100BE00090939702A0939802B093990280919102FA
:100BF00090919202A0919302B09194020196A11D4E
:100C0000B11D8093910290939202A0939302B093AE
:100C10009402BF91AF919F918F913F912F910F902F
:100C20000FBE0F901F90189526E8230F0296A11D66
:100C3000B11DD2CF1F920F920FB60F9211242F9396
:100C40003F934F935F936F937F938F939F93AF9354
:100C5000BF93CF93DF93EF93FF9380919002C09166
:100C60005B03D0E087FF24C01092850010928400BF
:100C7000809190028F5F8093900280919002082E65
:100C8000000C990B8C179D0724F4809190028C30F6
:100C9000C4F18091840090918500049680349C4931
:100CA00008F47AC08091840090918500049676C003
:100CB00080919002082E000C990B8C179D07C4F6AA
:100CC000E09190028E2FEE0F990BFC01EE0FFF1FAB
:100CD000E80FF91FE95CFC4F808186FFC9CFE091E6
:100CE00090028E2FEE0F990BFC01EE0FFF1FE80F05
:100CF000F91FE95CFC4F808160E08F730E94500215
:100D0000B7CF2091840030918500E09190028E2F22
:100D1000EE0F990BFC01EE0FFF1FE80FF91FE95CC6
:100D2000FC4F81819281820F931F90938900809361
:100D30008800E09190028E2FEE0F990BFC01EE0FD0
:100D4000FF1FE80FF91FE95CFC4F808186FF11C08F
:100D5000E09190028E2FEE0F990BFC01EE0FFF1F1A
:100D6000E80FF91FE95CFC4F808161E08F730E94FE
:100D70005002FF91EF91DF91CF91BF91AF919F9181
:100D80008F917F916F915F914F913F912F910F9034
:100D90000FBE0F901F90189580E49CE990938900F6
:100DA000809388008FEF80939002E3CFCF92DF9201
:100DB000EF92FF920F931F93E82FF92F05C0015078
:100DC00011092109310961F1908196239417B9F332
:100DD00005C0015011092109310911F190819623B3
:100DE0009413F7CFC12CD12CE12CF12C0AC08FEF3A
:100DF000C81AD80AE80AF80A0C151D052E053F0581
:100E000079F080818623841791F36C2D7D2D8E2DB2
:100E10009F2D1F910F91FF90EF90DF90CF9008953D
:100E200060E070E080E090E01F910F91FF90EF9004
:100E3000DF90CF90089510929D0210929C0288EE50
:100E400093E0A0E0B0E080939E0290939F02A09375
:100E5000A002B093A10284E091E090939B02809362
:100E60009A0285EC90E09093A7028093A60284EC0E
:100E700090E09093A9028093A80280EC90E0909378
:100E8000AB028093AA0281EC90E09093AD02809334
:100E9000AC0282EC90E09093AF028093AE0286ECBD
:100EA00090E09093B1028093B0021092B30210923E
:100EB000B4021092B5021092B60285E590E09093CC
:100EC0005D0380935C0380E090E0A0E8BFE3809343
:100ED0005E0390935F03A0936003B09361038AE97C
:100EE00099E9A9E5BFE38093620390936303A0931C
:100EF0006403B093650382E190E09093670380936D
:100F0000660383E190E0909369038093680381E036
:100F100090E090936B0380936A0310926F0310929A
:100F20006E0310927103109270031092730310926B
:100F3000720383E7809374031092750380915B03BF
:100F40008C3098F491E0980F90935B038093760334
:100F500090E0FC01EE0FFF1FE80FF91FE95CFC4F6A
:100F600088EB9BE09283818308958FEF80937603D3
:100F70000895789484B5826084BD84B5816084BD11
:100F800085B5826085BD85B5816085BD80916E0027
:100F9000816080936E001092810080918100826058
:100FA0008093810080918100816080938100809195
:100FB00080008160809380008091B1008460809384
:100FC000B1008091B00081608093B00080917A0080
:100FD000846080937A0080917A00826080937A00A6
:100FE00080917A00816080937A0080917A00806895
:100FF00080937A001092C100E091AA02F091AB02B6
:1010000082E08083E091A602F091A7021082E09135
:10101000A802F091A9028FEC80831092B202E091B5
:10102000AE02F091AF0286E08083E091AC02F091D5
:10103000AD02808180618083E091AC02F091AD02CD
:10104000808188608083E091AC02F091AD02808164
:1010500080688083E091AC02F091AD0280818F7D49
:101060008083809176038C3008F051C061E083E08A
:101070000E947E02E09176038E2F90E0DC01AA0FA1
:10108000BB1FA80FB91FA95CBC4F8C91807C8360EB
:101090008C9389ED80937703109278032CE08E2F48
:1010A000622F0E945E0D829FB001112430E020E08B
:1010B000AB01420F531FDA01AA0FBB1FA40FB51FCC
:1010C000A95CBC4F9C9196FD16C02F5F3F4F2C3002
:1010D000310571F781110FC01092800082E080937A
:1010E00081001092850010928400B19A80916F0067
:1010F000826080936F008E2F90E0FC01EE0FFF1F47
:10110000E80FF91FE95CFC4F80818064808361E017
:101110008DE00E947E0261E087E00E947E0261E035
:1011200088E00E947E0261E089E00E947E0261E028
:101130008BE00E947E0261E085E00E947E0261E019
:1011400086E00E947E0260E0809166030E947E023B
:1011500061E0809168030E947E0260E082E00E946C
:101160007E0260E084E00E947E0260E08AE00E94ED
:101170007E028DEB91E00E941903C0E0D0E08AE985
:1011800092E00E944F011816190664F48AE992E071
:101190000E942D01873621F09DE8980F923010F4BF
:1011A0008093740360917403633709F4DAC1643780
:1011B00009F487C0673609F0D7C184ED91E00E9439
:1011C000190380916A0390916B038130910509F0B6
:1011D00083C087ED91E00E94190390E080E00E94B7
:1011E0008C0020916203309163034091640350911D
:1011F000650360915E0370915F038091600390913D
:101200006103D12CC12CE12CF12C00E411E40E94EB
:10121000D5040E94830445974CF080916E03909111
:101220006F03019690936F0380936E0380916E031A
:1012300090916F030A978CF00E94830409976CF0D9
:101240000E94830440974CF4809170039091710345
:101250000196909371038093700380916E03909137
:101260006F030B97BCF08091700390917103069708
:101270008CF08091720390917303019690937303A5
:101280008093720310926F0310926E031092710399
:10129000109270038091720390917303029789F406
:1012A00080916A0390916B03019690936B038093F6
:1012B0006A03109273031092720381EF91E00E940F
:1012C0001903209709F45BCF0E945B01882309F47E
:1012D00056CF0E94000053CF8230910509F079C0AB
:1012E0008BE092E00E94190384EB90E00E948C0056
:1012F0002091620330916303409164035091650330
:1013000060915E0370915F0380916003909161032F
:10131000A4EBCA2ED12CE12CF12C00E211E40E94A6
:10132000D5040E94830445974CF080916E03909100
:101330006F03019690936F0380936E0380916E0309
:1013400090916F030A978CF00E94830409976CF0C8
:101350000E94830440974CF4809170039091710334
:101360000196909371038093700380916E03909126
:101370006F030B97BCF080917003909171030697F7
:101380008CF0809172039091730301969093730394
:101390008093720310926F0310926E031092710388
:1013A000109270038091720390917303049709F077
:1013B00088CF80916A0390916B03019690936B03A1
:1013C00080936A03109273031092720385E292E095
:1013D00076CF8330910509F078C08FE392E00E94C8
:1013E000190390E080E00E948C002091620330910C
:1013F0006303409164035091650360915E037091B3
:101400005F038091600390916103D12CC12CE12C8A
:10141000F12C00E211E40E94D5040E948304459758
:101420004CF080916E0390916F03019690936F033F
:1014300080936E0380916E0390916F030A978CF0F6
:101440000E94830409976CF00E94830440974CF437
:101450008091700390917103019690937103809332
:10146000700380916E0390916F030B97BCF0809195
:1014700070039091710306978CF0809172039091A4
:1014800073030196909373038093720310926F031A
:1014900010926E0310927103109270038091720388
:1014A00090917303029709F00CCF80916A03909199
:1014B0006B03019690936B0380936A0310927303FE
:1014C000109272038BE592E0FACE049709F045C0C2
:1014D000209162033091630340916403509165034E
:1014E00060915E0370915F0380916003909161034E
:1014F000D12CC12CE12CF12C00E811E40E94D50480
:1015000082E00E9427028C0184E00E94270221E0F1
:10151000892B09F020E081E0012B09F080E02817F9
:1015200051F080916A0390916B03019690936B0345
:1015300080936A03C6CE84E00E9427028C018AE071
:101540000E94270221E0892B09F020E081E0012B95
:1015500009F080E02813E5CFB4CE87E792E00E943F
:1015600019030E945F04ADCE8AE992E00E949101C6
:1015700082E191E00E940C03A4CE052E97FB1EF49D
:1015800000940E94D40A57FD07D00E94EF0A07FC7E
:1015900003D04EF40C94D40A509540953095219583
:1015A0003F4F4F4F5F4F089590958095709561958F
:1015B0007F4F8F4F9F4F08950E94110BA59F900D55
:1015C000B49F900DA49F800D911D11240895B7FF25
:1015D0000C94DC0A0E94DC0A821B930B0895A1E2A2
:1015E0001A2EAA1BBB1BFD010DC0AA1FBB1FEE1F9D
:1015F000FF1FA217B307E407F50720F0A21BB30BE8
:10160000E40BF50B661F771F881F991F1A9469F763
:1016100060957095809590959B01AC01BD01CF01BF
:101620000895A29FB001B39FC001A39F700D811DBB
:101630001124911DB29F700D811D1124911D0895DB
:101640005058BB27AA270E94380B0C94B20C0E945A
:10165000A40C38F00E94AB0C20F039F49F3F19F431
:1016600026F40C94A10C0EF4E095E7FB0C949B0C73
:10167000E92F0E94C30C58F3BA1762077307840757
:10168000950720F079F4A6F50C94E50C0EF4E0959E
:101690000B2EBA2FA02D0B01B90190010C01CA012C
:1016A000A0011124FF27591B99F0593F50F4503ED7
:1016B00068F11A16F040A22F232F342F4427585FC9
:1016C000F3CF469537952795A795F0405395C9F7E1
:1016D0007EF41F16BA0B620B730B840BBAF0915099
:1016E000A1F0FF0FBB1F661F771F881FC2F70EC038
:1016F000BA0F621F731F841F48F48795779567950B
:10170000B795F7959E3F08F0B0CF9395880F08F0F6
:101710009927EE0F9795879508950E94770C08F406
:1017200081E008950E94A60B0C94B20C0E94AB0CB1
:1017300058F00E94A40C40F029F45F3F29F00C946B
:101740009B0C51110C94E60C0C94A10C0E94C30C40
:1017500068F39923B1F3552391F3951B550BBB27E0
:10176000AA2762177307840738F09F5F5F4F220F25
:10177000331F441FAA1FA9F335D00E2E3AF0E0E81C
:1017800032D091505040E695001CCAF72BD0FE2F66
:1017900029D0660F771F881FBB1F261737074807FA
:1017A000AB07B0E809F0BB0B802DBF01FF279358B2
:1017B0005F4F3AF09E3F510578F00C949B0C0C94CF
:1017C000E60C5F3FE4F3983ED4F3869577956795F2
:1017D000B795F7959F5FC9F7880F911D96958795E7
:1017E00097F90895E1E0660F771F881FBB1F621706
:1017F00073078407BA0720F0621B730B840BBA0BC4
:10180000EE1F88F7E09508950E940B0C6894B111C3
:101810000C94E60C08950E94CB0C88F09F5798F02A
:10182000B92F9927B751B0F0E1F0660F771F881FE5
:10183000991F1AF0BA95C9F714C0B13091F00E94FF
:10184000E50CB1E008950C94E50C672F782F8827FC
:10185000B85F39F0B93FCCF3869577956795B39526
:10186000D9F73EF490958095709561957F4F8F4F95
:101870009F4F0895E89409C097FB3EF4909580959A
:10188000709561957F4F8F4F9F4F9923A9F0F92F46
:1018900096E9BB279395F695879577956795B795C4
:1018A000F111F8CFFAF4BB0F11F460FF1BC06F5FAA
:1018B0007F4F8F4F9F4F16C0882311F096E911C0BC
:1018C000772321F09EE8872F762F05C0662371F0DD
:1018D00096E8862F70E060E02AF09A95660F771FF1
:1018E000881FDAF7880F9695879597F90895990FCD
:1018F0000008550FAA0BE0E8FEEF16161706E807DA
:10190000F907C0F012161306E407F50798F0621BFA
:10191000730B840B950B39F40A2661F0232B242BCF
:10192000252B21F408950A2609F4A140A6958FEFEE
:10193000811D811D089597F99F6780E870E060E040
:1019400008959FEF80EC089500240A941616170658
:1019500018060906089500240A94121613061406A0
:1019600005060895092E0394000C11F4882352F003
:10197000BB0F40F4BF2B11F460FF04C06F5F7F4FBB
:101980008F4F9F4F089557FD9058440F551F59F0A2
:101990005F3F71F04795880F97FB991F61F09F3F5C
:1019A00079F087950895121613061406551FF2CF85
:1019B0004695F1DF08C0161617061806991FF1CFD5
:1019C00086957105610508940895E894BB276627FC
:1019D0007727CB0197F908950E94770C08F48FEFD1
:1019E00008950E94040D0C94B20C0E94A40C38F0CF
:1019F0000E94AB0C20F0952311F00C949B0C0C94DE
:101A0000A10C11240C94E60C0E94C30C70F3959F5A
:101A1000C1F3950F50E0551F629FF001729FBB27E5
:101A2000F00DB11D639FAA27F00DB11DAA1F649F81
:101A30006627B00DA11D661F829F2227B00DA11D34
:101A4000621F739FB00DA11D621F839FA00D611DBA
:101A5000221F749F3327A00D611D231F849F600DDB
:101A6000211D822F762F6A2F11249F5750409AF004
:101A7000F1F088234AF0EE0FFF1FBB1F661F771F90
:101A8000881F91505040A9F79E3F510580F00C945B
:101A90009B0C0C94E60C5F3FE4F3983ED4F38695E0
:101AA00077956795B795F795E7959F5FC1F7FE2BFB
:101AB000880F911D9695879597F90895991B79E060
:101AC00004C0991F961708F0961B881F7A95C9F7CE
:101AD00080950895EE0FFF1F0590F491E02D099475
:101AE000F894FFCF000000009101F1001E01DE011B
:101AF0004F012D0141010D0A004552524F523A202B
:101B00006E6F7420612076616C69642076616C75FB
:101B10006520666F72205269676874576865656CE6
:101B20003842697420646972656374696F6E004538
:101B300052524F523A206E6F7420612076616C6968
:101B4000642076616C756520666F72204C656674E2
:101B5000576865656C38426974206469726563749E
:101B6000696F6E0053746F70004552524F523A20A5
:101B7000496E76616C696420617267756D656E741B
:101B80002070617373656420746F2066756E637472
:101B9000696F6E204B65657044697374616E63652F
:101BA00000494E464F3A20526F626F7420496E6969
:101BB0007469617465642100476F00494E464F3A6D
:101BC000205374616765204F6E6520496E697469A2
:101BD0006174656400494E464F3A205374616765ED
:101BE000204F6E6520436F6D706C657465210049F0
:101BF0004E464F3A2053746167652054776F2049F1
:101C00006E6974696174656400494E464F3A2053A9
:101C1000746167652054776F20436F6D706C6574D5
:101C2000652100494E464F3A205374616765205440
:101C30006872656520496E697469617465640049FC
:101C40004E464F3A2053746167652054687265654B
:101C500020436F6D706C6574652100494E464F3AA4
:101C6000204369726375697420436F6D706C65748D
:041C700065210000EA
:107E0000112484B714BE81FFF0D085E080938100F7
:107E100082E08093C00088E18093C10086E0809377
:107E2000C20080E18093C4008EE0C9D0259A86E02C
:107E300020E33CEF91E0309385002093840096BBD3
:107E4000B09BFECF1D9AA8958150A9F7CC24DD24C4
:107E500088248394B5E0AB2EA1E19A2EF3E0BF2EE7
:107E6000A2D0813461F49FD0082FAFD0023811F036
:107E7000013811F484E001C083E08DD089C08234E0
:107E800011F484E103C0853419F485E0A6D080C0E4
:107E9000853579F488D0E82EFF2485D0082F10E0AE
:107EA000102F00270E291F29000F111F8ED06801E7
:107EB0006FC0863521F484E090D080E0DECF843638
:107EC00009F040C070D06FD0082F6DD080E0C81688
:107ED00080E7D80618F4F601B7BEE895C0E0D1E017
:107EE00062D089930C17E1F7F0E0CF16F0E7DF06D8
:107EF00018F0F601B7BEE89568D007B600FCFDCFD4
:107F0000A601A0E0B1E02C9130E011968C91119780
:107F100090E0982F8827822B932B1296FA010C0160
:107F200087BEE89511244E5F5F4FF1E0A038BF0790
:107F300051F7F601A7BEE89507B600FCFDCF97BE46
:107F4000E89526C08437B1F42ED02DD0F82E2BD052
:107F50003CD0F601EF2C8F010F5F1F4F84911BD097
:107F6000EA94F801C1F70894C11CD11CFA94CF0C13
:107F7000D11C0EC0853739F428D08EE10CD085E9AC
:107F80000AD08FE07ACF813511F488E018D01DD067
:107F900080E101D065CF982F8091C00085FFFCCF94
:107FA0009093C60008958091C00087FFFCCF809118
:107FB000C00084FD01C0A8958091C6000895E0E648
:107FC000F0E098E1908380830895EDDF803219F02E
:107FD00088E0F5DFFFCF84E1DECF1F93182FE3DFCA
:107FE0001150E9F7F2DF1F91089580E0E8DFEE27F6
:047FF000FF270994CA
:027FFE00040479
:00000001FF
