:020000040000FA
:100000000C9462000C948A000C948A000C948A0070
:100010000C948A000C948A000C948A000C948A0038
:100020000C948A000C948A000C948A000C94E605C7
:100030000C948A000C948A000C948A000C948A0018
:100040000C949C050C948A000C946A050C9444054D
:100050000C948A000C948A000C948A000C948A00F8
:100060000C948A000C948A000000000024002700F1
:100070002A0000000000250028002B0000000000DE
:1000800023002600290004040404040404040202DA
:100090000202020203030303030301020408102007
:1000A0004080010204081020010204081020000012
:1000B0000008000201000003040700000000000027
:1000C0000000E70611241FBECFEFD8E0DEBFCDBF92
:1000D00012E0A0E0B1E0E2EBF9E102C005900D9280
:1000E000A239B107D9F723E0A2E9B2E001C01D921D
:1000F000A736B207E1F710E0C2E6D0E004C02197CE
:10010000FE010E94D10CC136D107C9F70E944407F5
:100110000C94D70C0C9400008F929F92AF92BF92D8
:10012000FF920F931F93CF93DF93F09064032BE024
:100130002F1508F44CC02091660308E512E0021B5D
:10014000110927FD1395000F111F000F111F20919A
:100150006503C8E8D0E0C21BD10927FDD395CC0FB9
:10016000DD1FCC0FDD1F4E010D2E000CAA08BB08B1
:100170009801012E000C440B550B281939094A0926
:100180005B09DC010E944E0A24EB30E040E050E0C5
:100190000E94240A820E931EA41EB51E8C169D0674
:1001A0002CF0E801801691060CF4E4012297CC0FA4
:1001B000DD1F2FB7F8948F2D90E0FC01EE0FFF1F8D
:1001C000E80FF91FE15CFC4FD283C1832FBFDF91A1
:1001D000CF911F910F91FF90BF90AF909F908F9004
:1001E0000895AF92BF92CF92DF92EF92FF920F935A
:1001F0001F93CF93DF936C017B018B01040F151FBD
:10020000EB015E01AE18BF08C017D10759F0699124
:10021000D601ED91FC910190F081E02DC601099588
:10022000892B79F7C501DF91CF911F910F91FF9035
:10023000EF90DF90CF90BF90AF900895FC01538D69
:10024000448D252F30E0842F90E0821B930B5417B0
:1002500010F0CF96089501970895FC01918D828D3D
:10026000981761F0A28DAE0FBF2FB11D5D968C91D6
:10027000928D9F5F9F73928F90E008958FEF9FEF15
:100280000895FC01918D828D981731F0828DE80FD1
:10029000F11D858D90E008958FEF9FEF0895FC018B
:1002A000918D228D892F90E0805C9F4F821B910958
:1002B0008F739927089582EA92E00E944F0121E00E
:1002C000892B09F420E0822F089580E090E0892BAB
:1002D00029F00E945B0181110C9400000895FC013B
:1002E000A48DA80FB92FB11DA35ABF4F2C91848D97
:1002F00090E001968F739927848FA689B7892C93F4
:10030000A089B1898C91837080648C93938D848D46
:10031000981306C00288F389E02D80818F7D808349
:100320000895EF92FF920F931F93CF93DF93EC0109
:1003300081E0888F9B8D8C8D98131AC0E889F9898C
:10034000808185FF15C09FB7F894EE89FF8960838F
:10035000E889F98980818370806480839FBF81E010
:1003600090E0DF91CF911F910F91FF90EF90089552
:10037000F62E0B8D10E00F5F1F4F0F731127E02E2D
:100380008C8D8E110CC00FB607FCFACFE889F98965
:10039000808185FFF5CFCE010E946F01F1CFEB8DFB
:1003A000EC0FFD2FF11DE35AFF4FF0829FB7F89439
:1003B0000B8FEA89FB8980818062CFCFCF93DF9357
:1003C000EC01888D8823B9F0AA89BB89E889F9896D
:1003D0008C9185FD03C0808186FD0DC00FB607FCA2
:1003E000F7CF8C9185FFF2CF808185FFEDCFCE01D5
:1003F0000E946F01E9CFDF91CF910895833081F0A2
:1004000028F4813099F08230A9F008958730A9F05E
:100410008830C9F08430B1F4809180008F7D03C0B2
:10042000809180008F7780938000089584B58F77C6
:1004300084BD089584B58F7DFBCF8091B0008F7708
:100440008093B00008958091B0008F7DF9CFCF9355
:10045000DF93282F30E0F901E255FF4F8491F90135
:10046000E656FF4FD491F901EA57FF4FC491CC23D0
:10047000A1F081110E94FE01EC2FF0E0EE0FFF1FB2
:10048000E458FF4FA591B491EC91ED2381E090E009
:1004900009F480E0DF91CF91089580E090E0FACFF9
:1004A0001F93CF93DF93282F30E0F901E255FF4FE0
:1004B0008491F901E656FF4FD491F901EA57FF4FB5
:1004C000C491CC23A9F0162F81110E94FE01EC2FBC
:1004D000F0E0EE0FFF1FEE58FF4FA591B4918FB7DC
:1004E000F894EC91111108C0D095DE23DC938FBFF6
:1004F000DF91CF911F910895DE2BF8CFCF93DF933B
:1005000090E0FC01E656FF4F24918A579F4FFC0173
:1005100084918823D1F090E0880F991FFC01E8595D
:10052000FF4FA591B491FC01EE58FF4FC591D491B6
:1005300061110EC09FB7F8948C91E22FE0958E2345
:100540008C932881E223E8839FBFDF91CF910895A8
:100550008FB7F894EC91E22BEC938FBFF6CF1F93FB
:10056000CF93DF93182FEB0161E00E947E0220976A
:1005700039F460E0812FDF91CF911F910C945002EC
:10058000CF3FD10511F461E0F5CFE12FF0E0E25566
:10059000FF4FE491E33031F140F4E130B1F0E2306B
:1005A000E1F0C038D1057CF7E4CFE73029F1E8303D
:1005B00059F1E430B1F7809180008062809380002F
:1005C000D0938B00C0938A0004C084B5806884BD3A
:1005D000C7BDDF91CF911F91089584B5806284BD1E
:1005E000C8BDF7CF80918000806880938000D09351
:1005F0008900C0938800EDCF8091B000806880931F
:10060000B000C093B300E5CF8091B00080628093CA
:10061000B000C093B400DDCF42E050E065E171E08E
:1006200082EA92E00C94F100CF93DF93FC010190F9
:100630000020E9F73197AF01481B590BBC0182EA52
:1006400092E00E94F100EC010E940C038C0F9D1FB0
:10065000DF91CF910895CF93DF93EB01863471F44E
:1006600060E089E00E94500261E08BE00E9450024D
:10067000BE0186E0DF91CF910C94AF02823431F459
:1006800061E089E00E94500260E0EFCF88E191E0F4
:100690000E941403EDCFCF93DF93EB01863471F406
:1006A00061E087E00E94500260E088E00E94500212
:1006B000BE0185E0DF91CF910C94AF02823431F41A
:1006C00060E087E00E94500261E0EFCF8EE491E0AD
:1006D0000E941403EDCF4F925F926F927F928F92A0
:1006E0009F92AF92BF92CF92DF92EF92FF92CF9301
:1006F000DF936B017C0129013A010E94880A4B01BA
:100700005C01A3019201C701B6010E94870A6B0137
:100710007C0120E030E040E85FEB0E94F40A87FDB6
:1007200090C020E030E040E85FE3C701B6010E94DE
:10073000530C181634F4C12CD12C20E8E22E2FE3F0
:10074000F22E20E030E040E85FEBC501B4010E94EA
:10075000F40A87FD7DC020E030E040E85FE3C5019A
:10076000B4010E94530CCAEAD0E0181654F120E0FC
:1007700030E0A901C501B4010E94530C18160CF415
:100780006EC020E030E0A901C501B4010E94F40A66
:10079000D0E0C0E08823A9F0C501B401905820E062
:1007A00030E04AE253E40E94580C0E946B0BEB01CC
:1007B00020E030E0A901C501B4010E94530C87FD7F
:1007C00051C086E4BE010E944B0320E030E0A90145
:1007D000C701B6010E94530C18160CF445C020E066
:1007E00030E0A901C701B6010E94F40AD0E0C0E0E0
:1007F0008823A9F0C701B601905820E030E04AE212
:1008000053E40E94580C0E946B0BEB0120E030E097
:10081000A901C701B6010E94530C87FD28C086E4D8
:10082000BE01DF91CF91FF90EF90DF90CF90BF900E
:10083000AF909F908F907F906F905F904F900C94AF
:100840002B03C12CD12C90E8E92E9FEBF92E79CF08
:10085000812C912C80E8A82E8FEBB82E9DCFC5015E
:10086000B4019DCF82E4AECFC701B601C6CF82E40A
:10087000D7CF83E891E00E94140383E780930201BD
:1008800070E060E086E40E944B0370E060E086E484
:100890000E942B0381E090E090930101809300017E
:1008A00010929D0210929C0210929F0210929E0242
:1008B0001092A1021092A0028AE590E00C948C00A4
:1008C0000F931F9360E083E10E94500283E090E069
:1008D0000197F1F761E083E10E9450028BE490E020
:1008E0000197F1F760E083E10E945002ECEAF0E04A
:1008F0006491E8E9F0E0E491F0E0EE0FFF1FE458C6
:10090000FF4F8591949100E412E42FE030E0462FF0
:100910000E94A206611571058105910529F06F5F9E
:100920007F4F8F4F9F4F9F700E94A10B20E030E0C0
:1009300048E652E40E94F90A2CE53FE842E250E41E
:100940000E94F90A0E946B0BCB011F910F91089531
:100950004F925F926F927F928F929F92AF92BF92CF
:10096000CF92DF92EF92FF920F931F93CF93DF937B
:1009700000D000D0CDB7DEB72B013C0129833A83EC
:100980004B835C838CE3C816D1040CF03EC00E94FC
:100990006004BC01990F880B990B0E94A30BA8015E
:1009A00097010E94530C1816E4F429813A814B8177
:1009B0005C81C301B2010F900F900F900F90DF91F7
:1009C000CF911F910F91FF90EF90DF90CF90BF904C
:1009D000AF909F908F907F906F905F904F900C940E
:1009E0006B030E946004BC01990F880B990B0E9455
:1009F000A30BA80197010E94F40A87FF29C029814F
:100A00003A814B815C815058D4CF88E7C81AD1080D
:100A10008DE3C816D10400F50E946004BC01990F53
:100A2000880B990B0E94A30BA80197010E94530CFD
:100A300018162CF30E946004BC01990F880B990BC7
:100A40000E94A30BA80197010E94F40A87FDADCF75
:100A500020E030E0A901ADCF88E891E00F900F9041
:100A60000F900F90DF91CF911F910F91FF90EF901A
:100A7000DF90CF90BF90AF909F908F907F906F90BE
:100A80005F904F900C9414031F920F920FB60F9229
:100A900011242F933F934F935F936F937F938F9383
:100AA0009F93AF93BF93EF93FF9382EA92E00E94EC
:100AB0006F01FF91EF91BF91AF919F918F917F91C6
:100AC0006F915F914F913F912F910F900FBE0F90BB
:100AD0001F9018951F920F920FB60F9211242F930B
:100AE0008F939F93EF93FF93E091B202F091B30243
:100AF0008081E091B802F091B90282FD1BC0908123
:100B00008091BB028F5F8F732091BC02821741F0EE
:100B1000E091BB02F0E0EE55FD4F958F8093BB0254
:100B2000FF91EF919F918F912F910F900FBE0F909A
:100B30001F9018958081F4CF1F920F920FB60F92DD
:100B400011242F933F938F939F93AF93BF938091E3
:100B5000980290919902A0919A02B0919B023091D3
:100B6000970223E0230F2D3758F50196A11DB11DE3
:100B7000209397028093980290939902A0939A02EF
:100B8000B0939B028091930290919402A091950260
:100B9000B09196020196A11DB11D8093930290938E
:100BA0009402A0939502B0939602BF91AF919F914A
:100BB0008F913F912F910F900FBE0F901F9018951E
:100BC00026E8230F0296A11DB11DD2CF1F920F92CE
:100BD0000FB60F9211242F933F934F935F936F9310
:100BE0007F938F939F93AF93BF93CF93DF93EF93B5
:100BF000FF9380919202C0916303D0E087FF24C0ED
:100C00001092850010928400809192028F5F8093F1
:100C1000920280919202082E000C990B8C179D076E
:100C200024F4809192028C30C4F1809184009091E0
:100C30008500049680349C4908F47AC08091840031
:100C400090918500049676C080919202082E000C47
:100C5000990B8C179D07C4F6E09192028E2FEE0F30
:100C6000990BFC01EE0FFF1FE80FF91FE15CFC4F31
:100C7000808186FFC9CFE09192028E2FEE0F990BF3
:100C8000FC01EE0FFF1FE80FF91FE15CFC4F8081B4
:100C900060E08F730E945002B7CF209184003091A2
:100CA0008500E09192028E2FEE0F990BFC01EE0F62
:100CB000FF1FE80FF91FE15CFC4F81819281820FD9
:100CC000931F9093890080938800E09192028E2F69
:100CD000EE0F990BFC01EE0FFF1FE80FF91FE15C0F
:100CE000FC4F808186FF11C0E09192028E2FEE0FA3
:100CF000990BFC01EE0FFF1FE80FF91FE15CFC4FA1
:100D0000808161E08F730E945002FF91EF91DF912B
:100D1000CF91BF91AF919F918F917F916F915F9193
:100D20004F913F912F910F900FBE0F901F901895EC
:100D300080E49CE990938900809388008FEF8093F2
:100D40009202E3CFCF92DF92EF92FF920F931F9325
:100D5000E82FF92F05C0015011092109310961F16E
:100D6000908196239417B9F305C001501109210908
:100D7000310911F1908196239413F7CFC12CD12C16
:100D8000E12CF12C0AC08FEFC81AD80AE80AF80A39
:100D90000C151D052E053F0579F0808186238417EB
:100DA00091F36C2D7D2D8E2D9F2D1F910F91FF9016
:100DB000EF90DF90CF90089560E070E080E090E0E9
:100DC0001F910F91FF90EF90DF90CF9008951092B8
:100DD000A5021092A40288EE93E0A0E0B0E0809318
:100DE000A6029093A702A093A802B093A90287E05D
:100DF00091E09093A3028093A20285EC90E09093FF
:100E0000AF028093AE0284EC90E09093B1028093A5
:100E1000B00280EC90E09093B3028093B20281EC38
:100E200090E09093B5028093B40282EC90E09093AE
:100E3000B7028093B60286EC90E09093B90280935B
:100E4000B8021092BB021092BC021092BD02109226
:100E5000BE02809163038C3098F491E0980F9093D8
:100E600063038093640390E0FC01EE0FFF1FE80F23
:100E7000F91FE15CFC4F88EB9BE09283818308952E
:100E80008FEF809364030895789484B5826084BD65
:100E900084B5816084BD85B5826085BD85B581607E
:100EA00085BD80916E00816080936E0010928100FC
:100EB00080918100826080938100809181008160B7
:100EC0008093810080918000816080938000809178
:100ED000B10084608093B1008091B0008160809304
:100EE000B00080917A00846080937A0080917A00CB
:100EF000826080937A0080917A00816080937A008A
:100F000080917A00806880937A001092C100E0910D
:100F1000B202F091B30282E08083E091AE02F091E0
:100F2000AF021082E091B002F091B1028FEC8083A9
:100F30001092BA02E091B602F091B70286E0808387
:100F4000E091B402F091B502808180618083E091EC
:100F5000B402F091B502808188608083E091B40290
:100F6000F091B502808180688083E091B402F091B5
:100F7000B50280818F7D8083809164038C3008F07E
:100F800052C061E083E00E947E0280916403282FBA
:100F900030E0F901EE0FFF1FE20FF31FE15CFC4FA1
:100FA0009081907C9360908399ED9093650310926B
:100FB00066032CE0622F0E94C50C829FB0011124B1
:100FC00030E020E0AB01420F531FFA01EE0FFF1F8C
:100FD000E40FF51FE15CFC4F908196FD16C02F5F7A
:100FE0003F4F2C30310571F781110FC010928000F6
:100FF00082E0809381001092850010928400B19A63
:1010000080916F00826080936F00E09164038E2F67
:1010100090E0FC01EE0FFF1FE80FF91FE15CFC4FB1
:1010200080818064808361E08DE00E947E0261E0C7
:1010300087E00E947E0261E088E00E947E0261E01B
:1010400089E00E947E0261E08BE00E947E0261E006
:1010500085E00E947E0261E086E00E947E0260E000
:1010600082E10E947E0261E083E10E947E0260E0F4
:1010700082E00E947E0260E084E00E947E0260E0E6
:101080008AE00E947E0280EC91E00E941403C0E09E
:10109000D0E082EA92E00E944F011816190664F42B
:1010A00082EA92E00E942D01873621F09DE8980F98
:1010B000923010F48093020160910201633709F4C9
:1010C000B9C1643709F47FC0673609F0B6C187ED4E
:1010D00091E00E9414038091000190910101813000
:1010E000910509F07BC08AED91E00E94140390E025
:1010F00080E00E948C00D12CC12CE12CF12C00E46A
:1011000011E42AE939E949E55FE360E070E080E84D
:101110009FE30E94A8040E94600445974CF08091D0
:10112000A0029091A10201969093A1028093A00247
:101130008091A0029091A1020A978CF00E94600415
:1011400009976CF00E94600440974CF480919E02D5
:1011500090919F02019690939F0280939E028091AE
:10116000A0029091A1020B97BCF080919E029091F9
:101170009F0206978CF080919C0290919D020196AF
:1011800090939D0280939C021092A1021092A00263
:1011900010929F0210929E0280919C0290919D025B
:1011A000029789F48091000190910101019690933A
:1011B00001018093000110929D0210929C0284EF25
:1011C00091E00E941403209709F463CF0E945B0111
:1011D000882309F45ECF0E9400005BCF8230910526
:1011E00009F071C08EE092E00E94140384EB90E05D
:1011F0000E948C0024EBC22ED12CE12CF12C00E2B9
:1012000011E42AE939E949E55FE360E070E080E84C
:101210009FE30E94A8040E94600445974CF08091CF
:10122000A0029091A10201969093A1028093A00246
:101230008091A0029091A1020A978CF00E94600414
:1012400009976CF00E94600440974CF480919E02D4
:1012500090919F02019690939F0280939E028091AD
:10126000A0029091A1020B97BCF080919E029091F8
:101270009F0206978CF080919C0290919D020196AE
:1012800090939D0280939C021092A1021092A00262
:1012900010929F0210929E0280919C0290919D025A
:1012A000049709F090CF809100019091010101967F
:1012B000909301018093000110929D0210929C0274
:1012C00088E292E07ECF8330910509F070C082E41D
:1012D00092E00E94140390E080E00E948C00D12CE8
:1012E000C12CE12CF12C00E211E42AE939E949E5AD
:1012F0005FE360E070E080E89FE30E94A8040E9442
:10130000600445974CF08091A0029091A102019653
:101310009093A1028093A0028091A0029091A102DB
:101320000A978CF00E94600409976CF00E94600498
:1013300040974CF480919E0290919F020196909369
:101340009F0280939E028091A0029091A1020B9730
:10135000BCF080919E0290919F0206978CF0809144
:101360009C0290919D02019690939D0280939C0215
:101370001092A1021092A00210929F0210929E025F
:1013800080919C0290919D02029709F01CCF809160
:101390000001909101010196909301018093000159
:1013A00010929D0210929C028EE592E00ACF049763
:1013B000E9F5D12CC12CE12CF12C00E811E42AE94B
:1013C00039E949E55FE360E070E080E89FE30E946F
:1013D000A80482E00E9427028C0184E00E94270278
:1013E00021E0892B09F020E081E0012B09F080E069
:1013F000281751F08091000190910101019690937E
:10140000010180930001DFCE84E00E9427028C015D
:101410008AE00E94270221E0892B09F020E081E088
:10142000012B09F080E02813E5CFCDCE8AE792E0CA
:101430000E9414030E943904C6CE82EA92E00E9400
:1014400091010E940C03BFCE052E97FB1EF4009461
:101450000E943B0A57FD07D00E94560A07FC03D0A2
:101460004EF40C943B0A50954095309521953F4F92
:101470004F4F5F4F089590958095709561957F4F80
:101480008F4F9F4F08950E94780AA59F900DB49F9B
:10149000900DA49F800D911D11240895B7FF0C9409
:1014A000430A0E94430A821B930B0895A1E21A2E5D
:1014B000AA1BBB1BFD010DC0AA1FBB1FEE1FFF1FF8
:1014C000A217B307E407F50720F0A21BB30BE40B48
:1014D000F50B661F771F881F991F1A9469F760958F
:1014E0007095809590959B01AC01BD01CF01089549
:1014F000A29FB001B39FC001A39F700D811D112455
:10150000911DB29F700D811D1124911D0895505899
:10151000BB27AA270E949F0A0C94190C0E940B0C4F
:1015200038F00E94120C20F039F49F3F19F426F491
:101530000C94080C0EF4E095E7FB0C94020CE92FD8
:101540000E942A0C58F3BA1762077307840795079D
:1015500020F079F4A6F50C944C0C0EF4E0950B2ECB
:10156000BA2FA02D0B01B90190010C01CA01A001F5
:101570001124FF27591B99F0593F50F4503E68F150
:101580001A16F040A22F232F342F4427585FF3CF91
:10159000469537952795A795F0405395C9F77EF462
:1015A0001F16BA0B620B730B840BBAF09150A1F0AB
:1015B000FF0FBB1F661F771F881FC2F70EC0BA0F31
:1015C000621F731F841F48F4879577956795B795B9
:1015D000F7959E3F08F0B0CF9395880F08F09927B4
:1015E000EE0F9795879508950E94DE0B08F481E031
:1015F00008950E940D0B0C94190C0E94120C58F0C7
:101600000E940B0C40F029F45F3F29F00C94020C6F
:1016100051110C944D0C0C94080C0E942A0C68F388
:101620009923B1F3552391F3951B550BBB27AA279B
:1016300062177307840738F09F5F5F4F220F331FD5
:10164000441FAA1FA9F335D00E2E3AF0E0E832D09D
:1016500091505040E695001CCAF72BD0FE2F29D0A0
:10166000660F771F881FBB1F261737074807AB0772
:10167000B0E809F0BB0B802DBF01FF2793585F4FE7
:101680003AF09E3F510578F00C94020C0C944D0CEE
:101690005F3FE4F3983ED4F3869577956795B795C9
:1016A000F7959F5FC9F7880F911D9695879597F9D4
:1016B0000895E1E0660F771F881FBB1F621773074D
:1016C0008407BA0720F0621B730B840BBA0BEE1F62
:1016D00088F7E09508950E94720B6894B1110C94FC
:1016E0004D0C08950E94320C88F09F5798F0B92F46
:1016F0009927B751B0F0E1F0660F771F881F991F47
:101700001AF0BA95C9F714C0B13091F00E944C0C90
:10171000B1E008950C944C0C672F782F8827B85FA0
:1017200039F0B93FCCF3869577956795B395D9F79E
:101730003EF490958095709561957F4F8F4F9F4FA8
:101740000895E89409C097FB3EF4909580957095B4
:1017500061957F4F8F4F9F4F9923A9F0F92F96E9FD
:10176000BB279395F695879577956795B795F11172
:10177000F8CFFAF4BB0F11F460FF1BC06F5F7F4F0F
:101780008F4F9F4F16C0882311F096E911C0772321
:1017900021F09EE8872F762F05C0662371F096E82A
:1017A000862F70E060E02AF09A95660F771F881FF9
:1017B000DAF7880F9695879597F90895990F00089D
:1017C000550FAA0BE0E8FEEF16161706E807F90713
:1017D000C0F012161306E407F50798F0621B730BAE
:1017E000840B950B39F40A2661F0232B242B252B2F
:1017F00021F408950A2609F4A140A6958FEF811DD2
:10180000811D089597F99F6780E870E060E0089572
:101810009FEF80EC089500240A9416161706180608
:101820000906089500240A941216130614060506E4
:101830000895092E0394000C11F4882352F0BB0F75
:1018400040F4BF2B11F460FF04C06F5F7F4F8F4FD8
:101850009F4F089557FD9058440F551F59F05F3F13
:1018600071F04795880F97FB991F61F09F3F79F0C2
:1018700087950895121613061406551FF2CF469544
:10188000F1DF08C0161617061806991FF1CF8695C6
:101890007105610508940895E894BB2766277727AA
:1018A000CB0197F908950E94DE0B08F48FEF08959D
:1018B0000E946B0C0C94190C0E940B0C38F00E94C7
:1018C000120C20F0952311F00C94020C0C94080CCF
:1018D00011240C944D0C0E942A0C70F3959FC1F3B7
:1018E000950F50E0551F629FF001729FBB27F00DCE
:1018F000B11D639FAA27F00DB11DAA1F649F662723
:10190000B00DA11D661F829F2227B00DA11D621F71
:10191000739FB00DA11D621F839FA00D611D221F2B
:10192000749F3327A00D611D231F849F600D211D0F
:10193000822F762F6A2F11249F5750409AF0F1F092
:1019400088234AF0EE0FFF1FBB1F661F771F881FFB
:1019500091505040A9F79E3F510580F00C94020C25
:101960000C944D0C5F3FE4F3983ED4F38695779545
:101970006795B795F795E7959F5FC1F7FE2B880FA1
:10198000911D9695879597F90895991B79E004C064
:10199000991F961708F0961B881F7A95C9F78095AE
:1019A0000895EE0FFF1F0590F491E02D0994F8942F
:1019B000FFCF010073000000009101F1001E01DE65
:1019C000014F012D0141010D0A004552524F523A7B
:1019D000206E6F7420612076616C69642076616C82
:1019E000756520666F72205269676874576865650F
:1019F0006C3842697420646972656374696F6E0043
:101A00004552524F523A206E6F7420612076616CBD
:101A100069642076616C756520666F72204C65661E
:101A200074576865656C38426974206469726563CF
:101A300074696F6E0053746F70004552524F523A82
:101A400020496E76616C696420617267756D656EA0
:101A5000742070617373656420746F2066756E63A3
:101A600074696F6E204B65657044697374616E6351
:101A70006500494E464F3A20526F626F7420496E9E
:101A8000697469617465642100476F00494E464F6F
:101A90003A205374616765204F6E6520496E697402
:101AA000696174656400494E464F3A20537461671A
:101AB00065204F6E6520436F6D706C657465210005
:101AC000494E464F3A2053746167652054776F2022
:101AD000496E6974696174656400494E464F3A20E5
:101AE00053746167652054776F20436F6D706C6528
:101AF00074652100494E464F3A2053746167652052
:101B0000546872656520496E697469617465640022
:101B1000494E464F3A205374616765205468726598
:101B20006520436F6D706C6574652100494E464FAA
:101B30003A204369726375697420436F6D706C65F8
:041B400074652100A7
:107E0000112484B714BE81FFF0D085E080938100F7
:107E100082E08093C00088E18093C10086E0809377
:107E2000C20080E18093C4008EE0C9D0259A86E02C
:107E300020E33CEF91E0309385002093840096BBD3
:107E4000B09BFECF1D9AA8958150A9F7CC24DD24C4
:107E500088248394B5E0AB2EA1E19A2EF3E0BF2EE7
:107E6000A2D0813461F49FD0082FAFD0023811F036
:107E7000013811F484E001C083E08DD089C08234E0
:107E800011F484E103C0853419F485E0A6D080C0E4
:107E9000853579F488D0E82EFF2485D0082F10E0AE
:107EA000102F00270E291F29000F111F8ED06801E7
:107EB0006FC0863521F484E090D080E0DECF843638
:107EC00009F040C070D06FD0082F6DD080E0C81688
:107ED00080E7D80618F4F601B7BEE895C0E0D1E017
:107EE00062D089930C17E1F7F0E0CF16F0E7DF06D8
:107EF00018F0F601B7BEE89568D007B600FCFDCFD4
:107F0000A601A0E0B1E02C9130E011968C91119780
:107F100090E0982F8827822B932B1296FA010C0160
:107F200087BEE89511244E5F5F4FF1E0A038BF0790
:107F300051F7F601A7BEE89507B600FCFDCF97BE46
:107F4000E89526C08437B1F42ED02DD0F82E2BD052
:107F50003CD0F601EF2C8F010F5F1F4F84911BD097
:107F6000EA94F801C1F70894C11CD11CFA94CF0C13
:107F7000D11C0EC0853739F428D08EE10CD085E9AC
:107F80000AD08FE07ACF813511F488E018D01DD067
:107F900080E101D065CF982F8091C00085FFFCCF94
:107FA0009093C60008958091C00087FFFCCF809118
:107FB000C00084FD01C0A8958091C6000895E0E648
:107FC000F0E098E1908380830895EDDF803219F02E
:107FD00088E0F5DFFFCF84E1DECF1F93182FE3DFCA
:107FE0001150E9F7F2DF1F91089580E0E8DFEE27F6
:047FF000FF270994CA
:027FFE00040479
:00000001FF
